{
  "contractName": "Dex",
  "abi": [
    {
      "anonymous": false,
      "inputs": [
        {
          "indexed": true,
          "internalType": "address",
          "name": "previousOwner",
          "type": "address"
        },
        {
          "indexed": true,
          "internalType": "address",
          "name": "newOwner",
          "type": "address"
        }
      ],
      "name": "OwnershipTransferred",
      "type": "event"
    },
    {
      "inputs": [
        {
          "internalType": "bytes32",
          "name": "ticker",
          "type": "bytes32"
        },
        {
          "internalType": "address",
          "name": "tokenAddress",
          "type": "address"
        }
      ],
      "name": "addToken",
      "outputs": [],
      "stateMutability": "nonpayable",
      "type": "function"
    },
    {
      "inputs": [
        {
          "internalType": "address",
          "name": "",
          "type": "address"
        },
        {
          "internalType": "bytes32",
          "name": "",
          "type": "bytes32"
        }
      ],
      "name": "balances",
      "outputs": [
        {
          "internalType": "uint256",
          "name": "",
          "type": "uint256"
        }
      ],
      "stateMutability": "view",
      "type": "function"
    },
    {
      "inputs": [
        {
          "internalType": "uint256",
          "name": "amount",
          "type": "uint256"
        },
        {
          "internalType": "bytes32",
          "name": "ticker",
          "type": "bytes32"
        }
      ],
      "name": "deposit",
      "outputs": [],
      "stateMutability": "nonpayable",
      "type": "function"
    },
    {
      "inputs": [],
      "name": "depositEth",
      "outputs": [],
      "stateMutability": "payable",
      "type": "function"
    },
    {
      "inputs": [],
      "name": "nextOrderId",
      "outputs": [
        {
          "internalType": "uint256",
          "name": "",
          "type": "uint256"
        }
      ],
      "stateMutability": "view",
      "type": "function"
    },
    {
      "inputs": [
        {
          "internalType": "bytes32",
          "name": "",
          "type": "bytes32"
        },
        {
          "internalType": "uint256",
          "name": "",
          "type": "uint256"
        },
        {
          "internalType": "uint256",
          "name": "",
          "type": "uint256"
        }
      ],
      "name": "orderBook",
      "outputs": [
        {
          "internalType": "uint256",
          "name": "id",
          "type": "uint256"
        },
        {
          "internalType": "address",
          "name": "trader",
          "type": "address"
        },
        {
          "internalType": "enum Dex.Side",
          "name": "side",
          "type": "uint8"
        },
        {
          "internalType": "bytes32",
          "name": "ticker",
          "type": "bytes32"
        },
        {
          "internalType": "uint256",
          "name": "amount",
          "type": "uint256"
        },
        {
          "internalType": "uint256",
          "name": "price",
          "type": "uint256"
        },
        {
          "internalType": "uint256",
          "name": "filled",
          "type": "uint256"
        }
      ],
      "stateMutability": "view",
      "type": "function"
    },
    {
      "inputs": [],
      "name": "owner",
      "outputs": [
        {
          "internalType": "address",
          "name": "",
          "type": "address"
        }
      ],
      "stateMutability": "view",
      "type": "function"
    },
    {
      "inputs": [],
      "name": "renounceOwnership",
      "outputs": [],
      "stateMutability": "nonpayable",
      "type": "function"
    },
    {
      "inputs": [
        {
          "internalType": "uint256",
          "name": "",
          "type": "uint256"
        }
      ],
      "name": "tokenList",
      "outputs": [
        {
          "internalType": "bytes32",
          "name": "",
          "type": "bytes32"
        }
      ],
      "stateMutability": "view",
      "type": "function"
    },
    {
      "inputs": [
        {
          "internalType": "bytes32",
          "name": "",
          "type": "bytes32"
        }
      ],
      "name": "tokenMapping",
      "outputs": [
        {
          "internalType": "bytes32",
          "name": "ticker",
          "type": "bytes32"
        },
        {
          "internalType": "address",
          "name": "tokenAddress",
          "type": "address"
        }
      ],
      "stateMutability": "view",
      "type": "function"
    },
    {
      "inputs": [
        {
          "internalType": "address",
          "name": "newOwner",
          "type": "address"
        }
      ],
      "name": "transferOwnership",
      "outputs": [],
      "stateMutability": "nonpayable",
      "type": "function"
    },
    {
      "inputs": [
        {
          "internalType": "uint256",
          "name": "amount",
          "type": "uint256"
        },
        {
          "internalType": "bytes32",
          "name": "ticker",
          "type": "bytes32"
        }
      ],
      "name": "withrawal",
      "outputs": [],
      "stateMutability": "nonpayable",
      "type": "function"
    },
    {
      "inputs": [
        {
          "internalType": "bytes32",
          "name": "ticker",
          "type": "bytes32"
        },
        {
          "internalType": "enum Dex.Side",
          "name": "side",
          "type": "uint8"
        }
      ],
      "name": "getOrderBook",
      "outputs": [
        {
          "components": [
            {
              "internalType": "uint256",
              "name": "id",
              "type": "uint256"
            },
            {
              "internalType": "address",
              "name": "trader",
              "type": "address"
            },
            {
              "internalType": "enum Dex.Side",
              "name": "side",
              "type": "uint8"
            },
            {
              "internalType": "bytes32",
              "name": "ticker",
              "type": "bytes32"
            },
            {
              "internalType": "uint256",
              "name": "amount",
              "type": "uint256"
            },
            {
              "internalType": "uint256",
              "name": "price",
              "type": "uint256"
            },
            {
              "internalType": "uint256",
              "name": "filled",
              "type": "uint256"
            }
          ],
          "internalType": "struct Dex.Order[]",
          "name": "",
          "type": "tuple[]"
        }
      ],
      "stateMutability": "view",
      "type": "function"
    },
    {
      "inputs": [
        {
          "internalType": "enum Dex.Side",
          "name": "side",
          "type": "uint8"
        },
        {
          "internalType": "bytes32",
          "name": "ticker",
          "type": "bytes32"
        },
        {
          "internalType": "uint256",
          "name": "amount",
          "type": "uint256"
        },
        {
          "internalType": "uint256",
          "name": "price",
          "type": "uint256"
        }
      ],
      "name": "createLimitOrder",
      "outputs": [],
      "stateMutability": "nonpayable",
      "type": "function"
    },
    {
      "inputs": [
        {
          "internalType": "enum Dex.Side",
          "name": "side",
          "type": "uint8"
        },
        {
          "internalType": "bytes32",
          "name": "ticker",
          "type": "bytes32"
        },
        {
          "internalType": "uint256",
          "name": "amount",
          "type": "uint256"
        }
      ],
      "name": "createMarketOrder",
      "outputs": [],
      "stateMutability": "nonpayable",
      "type": "function"
    }
  ],
  "bytecode": "0x608060405260006004553480156200001657600080fd5b50620000376200002b6200003d60201b60201c565b6200004560201b60201c565b62000109565b600033905090565b60008060009054906101000a900473ffffffffffffffffffffffffffffffffffffffff169050816000806101000a81548173ffffffffffffffffffffffffffffffffffffffff021916908373ffffffffffffffffffffffffffffffffffffffff1602179055508173ffffffffffffffffffffffffffffffffffffffff168173ffffffffffffffffffffffffffffffffffffffff167f8be0079c531659141344cd1fd0a4f28419497f9722a3daafe3b4186f6b6457e060405160405180910390a35050565b61344180620001196000396000f3fe6080604052600436106100e85760003560e01c8063715018a61161008a5780639ead7222116100595780639ead7222146102c6578063ba58ea6814610303578063c9630cb014610340578063f2fde38b14610369576100e8565b8063715018a6146102325780638da5cb5b146102495780639776aacf1461027457806399ec2f1c1461029d576100e8565b80632a58b330116100c65780632a58b33014610196578063439370b1146101c1578063667cb4ba146101cb5780636f3b62f914610209576100e8565b80630bb431b6146100ed578063168f5a01146101305780631f14df6914610159575b600080fd5b3480156100f957600080fd5b50610114600480360381019061010f91906128d0565b610392565b60405161012797969594939291906129f9565b60405180910390f35b34801561013c57600080fd5b5061015760048036038101906101529190612a68565b61042b565b005b34801561016557600080fd5b50610180600480360381019061017b9190612ad4565b6106d6565b60405161018d9190612b14565b60405180910390f35b3480156101a257600080fd5b506101ab6106fb565b6040516101b89190612b14565b60405180910390f35b6101c9610701565b005b3480156101d757600080fd5b506101f260048036038101906101ed9190612b2f565b6107fa565b604051610200929190612b5c565b60405180910390f35b34801561021557600080fd5b50610230600480360381019061022b9190612baa565b61083e565b005b34801561023e57600080fd5b5061024761127e565b005b34801561025557600080fd5b5061025e611306565b60405161026b9190612c11565b60405180910390f35b34801561028057600080fd5b5061029b60048036038101906102969190612c2c565b61132f565b005b3480156102a957600080fd5b506102c460048036038101906102bf9190612c6c565b61146a565b005b3480156102d257600080fd5b506102ed60048036038101906102e89190612cbf565b6122d8565b6040516102fa9190612cec565b60405180910390f35b34801561030f57600080fd5b5061032a60048036038101906103259190612d07565b6122fc565b6040516103379190612ec0565b60405180910390f35b34801561034c57600080fd5b5061036760048036038101906103629190612a68565b612455565b005b34801561037557600080fd5b50610390600480360381019061038b9190612ee2565b61266f565b005b600560205282600052604060002060205281600052604060002081815481106103ba57600080fd5b906000526020600020906006020160009250925050508060000154908060010160009054906101000a900473ffffffffffffffffffffffffffffffffffffffff16908060010160149054906101000a900460ff16908060020154908060030154908060040154908060050154905087565b80600073ffffffffffffffffffffffffffffffffffffffff166001600083815260200190815260200160002060010160009054906101000a900473ffffffffffffffffffffffffffffffffffffffff1673ffffffffffffffffffffffffffffffffffffffff1614156104d2576040517f08c379a00000000000000000000000000000000000000000000000000000000081526004016104c990612f6c565b60405180910390fd5b82600360003373ffffffffffffffffffffffffffffffffffffffff1673ffffffffffffffffffffffffffffffffffffffff1681526020019081526020016000206000848152602001908152602001600020541015610565576040517f08c379a000000000000000000000000000000000000000000000000000000000815260040161055c90612fd8565b60405180910390fd5b6105c883600360003373ffffffffffffffffffffffffffffffffffffffff1673ffffffffffffffffffffffffffffffffffffffff16815260200190815260200160002060008581526020019081526020016000205461276790919063ffffffff16565b600360003373ffffffffffffffffffffffffffffffffffffffff1673ffffffffffffffffffffffffffffffffffffffff1681526020019081526020016000206000848152602001908152602001600020819055506001600083815260200190815260200160002060010160009054906101000a900473ffffffffffffffffffffffffffffffffffffffff1673ffffffffffffffffffffffffffffffffffffffff1663a9059cbb33856040518363ffffffff1660e01b815260040161068d929190612ff8565b6020604051808303816000875af11580156106ac573d6000803e3d6000fd5b505050506040513d601f19601f820116820180604052508101906106d09190613059565b50505050565b6003602052816000526040600020602052806000526040600020600091509150505481565b60045481565b61078434600360003373ffffffffffffffffffffffffffffffffffffffff1673ffffffffffffffffffffffffffffffffffffffff16815260200190815260200160002060007f455448000000000000000000000000000000000000000000000000000000000081526020019081526020016000205461277d90919063ffffffff16565b600360003373ffffffffffffffffffffffffffffffffffffffff1673ffffffffffffffffffffffffffffffffffffffff16815260200190815260200160002060007f4554480000000000000000000000000000000000000000000000000000000000815260200190815260200160002081905550565b60016020528060005260406000206000915090508060000154908060010160009054906101000a900473ffffffffffffffffffffffffffffffffffffffff16905082565b6000600181111561085257610851612973565b5b84600181111561086557610864612973565b5b14156108f857808261087791906130b5565b600360003373ffffffffffffffffffffffffffffffffffffffff1673ffffffffffffffffffffffffffffffffffffffff16815260200190815260200160002060007f455448000000000000000000000000000000000000000000000000000000000081526020019081526020016000205410156108f357600080fd5b610983565b60018081111561090b5761090a612973565b5b84600181111561091e5761091d612973565b5b14156109825781600360003373ffffffffffffffffffffffffffffffffffffffff1673ffffffffffffffffffffffffffffffffffffffff168152602001908152602001600020600085815260200190815260200160002054101561098157600080fd5b5b5b60006005600085815260200190815260200160002060008660018111156109ad576109ac612973565b5b81526020019081526020016000209050806040518060e0016040528060045481526020013373ffffffffffffffffffffffffffffffffffffffff168152602001876001811115610a00576109ff612973565b5b8152602001868152602001858152602001848152602001600081525090806001815401808255809150506001900390600052602060002090600602016000909190919091506000820151816000015560208201518160010160006101000a81548173ffffffffffffffffffffffffffffffffffffffff021916908373ffffffffffffffffffffffffffffffffffffffff16021790555060408201518160010160146101000a81548160ff02191690836001811115610ac157610ac0612973565b5b0217905550606082015181600201556080820151816003015560a0820151816004015560c082015181600501555050600080828054905011610b04576000610b16565b60018280549050610b15919061310f565b5b905060006001811115610b2c57610b2b612973565b5b866001811115610b3f57610b3e612973565b5b1415610ebd575b6000811115610eb857818181548110610b6257610b61613143565b5b90600052602060002090600602016004015482600183610b82919061310f565b81548110610b9357610b92613143565b5b9060005260206000209060060201600401541115610bb057610eb8565b600082600183610bc0919061310f565b81548110610bd157610bd0613143565b5b90600052602060002090600602016040518060e0016040529081600082015481526020016001820160009054906101000a900473ffffffffffffffffffffffffffffffffffffffff1673ffffffffffffffffffffffffffffffffffffffff1673ffffffffffffffffffffffffffffffffffffffff1681526020016001820160149054906101000a900460ff166001811115610c6f57610c6e612973565b5b6001811115610c8157610c80612973565b5b81526020016002820154815260200160038201548152602001600482015481526020016005820154815250509050828281548110610cc257610cc1613143565b5b906000526020600020906006020183600184610cde919061310f565b81548110610cef57610cee613143565b5b9060005260206000209060060201600082015481600001556001820160009054906101000a900473ffffffffffffffffffffffffffffffffffffffff168160010160006101000a81548173ffffffffffffffffffffffffffffffffffffffff021916908373ffffffffffffffffffffffffffffffffffffffff1602179055506001820160149054906101000a900460ff168160010160146101000a81548160ff02191690836001811115610da657610da5612973565b5b02179055506002820154816002015560038201548160030155600482015481600401556005820154816005015590505080838381548110610dea57610de9613143565b5b90600052602060002090600602016000820151816000015560208201518160010160006101000a81548173ffffffffffffffffffffffffffffffffffffffff021916908373ffffffffffffffffffffffffffffffffffffffff16021790555060408201518160010160146101000a81548160ff02191690836001811115610e7457610e73612973565b5b0217905550606082015181600201556080820151816003015560a0820151816004015560c082015181600501559050508180610eaf90613172565b92505050610b46565b61125e565b600180811115610ed057610ecf612973565b5b866001811115610ee357610ee2612973565b5b141561125d575b600081111561125c57818181548110610f0657610f05613143565b5b90600052602060002090600602016004015482600183610f26919061310f565b81548110610f3757610f36613143565b5b9060005260206000209060060201600401541015610f545761125c565b600082600183610f64919061310f565b81548110610f7557610f74613143565b5b90600052602060002090600602016040518060e0016040529081600082015481526020016001820160009054906101000a900473ffffffffffffffffffffffffffffffffffffffff1673ffffffffffffffffffffffffffffffffffffffff1673ffffffffffffffffffffffffffffffffffffffff1681526020016001820160149054906101000a900460ff16600181111561101357611012612973565b5b600181111561102557611024612973565b5b8152602001600282015481526020016003820154815260200160048201548152602001600582015481525050905082828154811061106657611065613143565b5b906000526020600020906006020183600184611082919061310f565b8154811061109357611092613143565b5b9060005260206000209060060201600082015481600001556001820160009054906101000a900473ffffffffffffffffffffffffffffffffffffffff168160010160006101000a81548173ffffffffffffffffffffffffffffffffffffffff021916908373ffffffffffffffffffffffffffffffffffffffff1602179055506001820160149054906101000a900460ff168160010160146101000a81548160ff0219169083600181111561114a57611149612973565b5b0217905550600282015481600201556003820154816003015560048201548160040155600582015481600501559050508083838154811061118e5761118d613143565b5b90600052602060002090600602016000820151816000015560208201518160010160006101000a81548173ffffffffffffffffffffffffffffffffffffffff021916908373ffffffffffffffffffffffffffffffffffffffff16021790555060408201518160010160146101000a81548160ff0219169083600181111561121857611217612973565b5b0217905550606082015181600201556080820151816003015560a0820151816004015560c08201518160050155905050818061125390613172565b92505050610eea565b5b5b600460008154809291906112719061319c565b9190505550505050505050565b611286612793565b73ffffffffffffffffffffffffffffffffffffffff166112a4611306565b73ffffffffffffffffffffffffffffffffffffffff16146112fa576040517f08c379a00000000000000000000000000000000000000000000000000000000081526004016112f190613231565b60405180910390fd5b611304600061279b565b565b60008060009054906101000a900473ffffffffffffffffffffffffffffffffffffffff16905090565b611337612793565b73ffffffffffffffffffffffffffffffffffffffff16611355611306565b73ffffffffffffffffffffffffffffffffffffffff16146113ab576040517f08c379a00000000000000000000000000000000000000000000000000000000081526004016113a290613231565b60405180910390fd5b60405180604001604052808381526020018273ffffffffffffffffffffffffffffffffffffffff16815250600160008481526020019081526020016000206000820151816000015560208201518160010160006101000a81548173ffffffffffffffffffffffffffffffffffffffff021916908373ffffffffffffffffffffffffffffffffffffffff16021790555090505060028290806001815401808255809150506001900390600052602060002001600090919091909150555050565b60018081111561147d5761147c612973565b5b8360018111156114905761148f612973565b5b141561152a5780600360003373ffffffffffffffffffffffffffffffffffffffff1673ffffffffffffffffffffffffffffffffffffffff1681526020019081526020016000206000848152602001908152602001600020541015611529576040517f08c379a00000000000000000000000000000000000000000000000000000000081526004016115209061329d565b60405180910390fd5b5b600080600181111561153f5761153e612973565b5b84600181111561155257611551612973565b5b14156115615760019050611566565b600090505b600060056000858152602001908152602001600020600083815260200190815260200160002090506000805b8280549050811080156115a457508482105b1561208457600082866115b7919061310f565b905060008483815481106115ce576115cd613143565b5b9060005260206000209060060201600501548584815481106115f3576115f2613143565b5b90600052602060002090600602016003015461160f919061310f565b905060008282111561162357829050611627565b8190505b808561163391906132bd565b94508086858154811061164957611648613143565b5b90600052602060002090600602016005015461166591906132bd565b86858154811061167857611677613143565b5b90600052602060002090600602016005018190555060008685815481106116a2576116a1613143565b5b906000526020600020906006020160040154826116bf91906130b5565b9050600060018111156116d5576116d4612973565b5b8b60018111156116e8576116e7612973565b5b1415611bef5786858154811061170157611700613143565b5b9060005260206000209060060201600401548261171e91906130b5565b600360003373ffffffffffffffffffffffffffffffffffffffff1673ffffffffffffffffffffffffffffffffffffffff16815260200190815260200160002060007f4554480000000000000000000000000000000000000000000000000000000000815260200190815260200160002054101561179a57600080fd5b81600360003373ffffffffffffffffffffffffffffffffffffffff1673ffffffffffffffffffffffffffffffffffffffff16815260200190815260200160002060008c8152602001908152602001600020546117f691906132bd565b600360003373ffffffffffffffffffffffffffffffffffffffff1673ffffffffffffffffffffffffffffffffffffffff16815260200190815260200160002060008c81526020019081526020016000208190555080600360003373ffffffffffffffffffffffffffffffffffffffff1673ffffffffffffffffffffffffffffffffffffffff16815260200190815260200160002060007f45544800000000000000000000000000000000000000000000000000000000008152602001908152602001600020546118c6919061310f565b600360003373ffffffffffffffffffffffffffffffffffffffff1673ffffffffffffffffffffffffffffffffffffffff16815260200190815260200160002060007f4554480000000000000000000000000000000000000000000000000000000000815260200190815260200160002081905550816003600089888154811061195257611951613143565b5b906000526020600020906006020160010160009054906101000a900473ffffffffffffffffffffffffffffffffffffffff1673ffffffffffffffffffffffffffffffffffffffff1673ffffffffffffffffffffffffffffffffffffffff16815260200190815260200160002060008c8152602001908152602001600020546119da919061310f565b600360008988815481106119f1576119f0613143565b5b906000526020600020906006020160010160009054906101000a900473ffffffffffffffffffffffffffffffffffffffff1673ffffffffffffffffffffffffffffffffffffffff1673ffffffffffffffffffffffffffffffffffffffff16815260200190815260200160002060008c8152602001908152602001600020819055508060036000898881548110611a8a57611a89613143565b5b906000526020600020906006020160010160009054906101000a900473ffffffffffffffffffffffffffffffffffffffff1673ffffffffffffffffffffffffffffffffffffffff1673ffffffffffffffffffffffffffffffffffffffff16815260200190815260200160002060007f4554480000000000000000000000000000000000000000000000000000000000815260200190815260200160002054611b3291906132bd565b60036000898881548110611b4957611b48613143565b5b906000526020600020906006020160010160009054906101000a900473ffffffffffffffffffffffffffffffffffffffff1673ffffffffffffffffffffffffffffffffffffffff1673ffffffffffffffffffffffffffffffffffffffff16815260200190815260200160002060007f455448000000000000000000000000000000000000000000000000000000000081526020019081526020016000208190555061206d565b600180811115611c0257611c01612973565b5b8b6001811115611c1557611c14612973565b5b141561206c5781600360003373ffffffffffffffffffffffffffffffffffffffff1673ffffffffffffffffffffffffffffffffffffffff16815260200190815260200160002060008c815260200190815260200160002054611c77919061310f565b600360003373ffffffffffffffffffffffffffffffffffffffff1673ffffffffffffffffffffffffffffffffffffffff16815260200190815260200160002060008c81526020019081526020016000208190555080600360003373ffffffffffffffffffffffffffffffffffffffff1673ffffffffffffffffffffffffffffffffffffffff16815260200190815260200160002060007f4554480000000000000000000000000000000000000000000000000000000000815260200190815260200160002054611d4791906132bd565b600360003373ffffffffffffffffffffffffffffffffffffffff1673ffffffffffffffffffffffffffffffffffffffff16815260200190815260200160002060007f45544800000000000000000000000000000000000000000000000000000000008152602001908152602001600020819055508160036000898881548110611dd357611dd2613143565b5b906000526020600020906006020160010160009054906101000a900473ffffffffffffffffffffffffffffffffffffffff1673ffffffffffffffffffffffffffffffffffffffff1673ffffffffffffffffffffffffffffffffffffffff16815260200190815260200160002060008c815260200190815260200160002054611e5b91906132bd565b60036000898881548110611e7257611e71613143565b5b906000526020600020906006020160010160009054906101000a900473ffffffffffffffffffffffffffffffffffffffff1673ffffffffffffffffffffffffffffffffffffffff1673ffffffffffffffffffffffffffffffffffffffff16815260200190815260200160002060008c8152602001908152602001600020819055508060036000898881548110611f0b57611f0a613143565b5b906000526020600020906006020160010160009054906101000a900473ffffffffffffffffffffffffffffffffffffffff1673ffffffffffffffffffffffffffffffffffffffff1673ffffffffffffffffffffffffffffffffffffffff16815260200190815260200160002060007f4554480000000000000000000000000000000000000000000000000000000000815260200190815260200160002054611fb3919061310f565b60036000898881548110611fca57611fc9613143565b5b906000526020600020906006020160010160009054906101000a900473ffffffffffffffffffffffffffffffffffffffff1673ffffffffffffffffffffffffffffffffffffffff1673ffffffffffffffffffffffffffffffffffffffff16815260200190815260200160002060007f45544800000000000000000000000000000000000000000000000000000000008152602001908152602001600020819055505b5b50505050808061207c9061319c565b915050611592565b505b8160008154811061209a57612099613143565b5b906000526020600020906006020160030154826000815481106120c0576120bf613143565b5b9060005260206000209060060201600501541480156120e3575060008280549050115b156122d05760005b600183805490506120fc919061310f565b81101561223d578260018261211191906132bd565b8154811061212257612121613143565b5b906000526020600020906006020183828154811061214357612142613143565b5b9060005260206000209060060201600082015481600001556001820160009054906101000a900473ffffffffffffffffffffffffffffffffffffffff168160010160006101000a81548173ffffffffffffffffffffffffffffffffffffffff021916908373ffffffffffffffffffffffffffffffffffffffff1602179055506001820160149054906101000a900460ff168160010160146101000a81548160ff021916908360018111156121fa576121f9612973565b5b02179055506002820154816002015560038201548160030155600482015481600401556005820154816005015590505080806122359061319c565b9150506120eb565b508180548061224f5761224e613313565b5b60019003818190600052602060002090600602016000808201600090556001820160006101000a81549073ffffffffffffffffffffffffffffffffffffffff02191690556001820160146101000a81549060ff0219169055600282016000905560038201600090556004820160009055600582016000905550509055612086565b505050505050565b600281815481106122e857600080fd5b906000526020600020016000915090505481565b606060056000848152602001908152602001600020600083600181111561232657612325612973565b5b8152602001908152602001600020805480602002602001604051908101604052809291908181526020016000905b8282101561244957838290600052602060002090600602016040518060e0016040529081600082015481526020016001820160009054906101000a900473ffffffffffffffffffffffffffffffffffffffff1673ffffffffffffffffffffffffffffffffffffffff1673ffffffffffffffffffffffffffffffffffffffff1681526020016001820160149054906101000a900460ff1660018111156123fc576123fb612973565b5b600181111561240e5761240d612973565b5b815260200160028201548152602001600382015481526020016004820154815260200160058201548152505081526020019060010190612354565b50505050905092915050565b80600073ffffffffffffffffffffffffffffffffffffffff166001600083815260200190815260200160002060010160009054906101000a900473ffffffffffffffffffffffffffffffffffffffff1673ffffffffffffffffffffffffffffffffffffffff1614156124fc576040517f08c379a00000000000000000000000000000000000000000000000000000000081526004016124f390612f6c565b60405180910390fd5b61255f83600360003373ffffffffffffffffffffffffffffffffffffffff1673ffffffffffffffffffffffffffffffffffffffff16815260200190815260200160002060008581526020019081526020016000205461277d90919063ffffffff16565b600360003373ffffffffffffffffffffffffffffffffffffffff1673ffffffffffffffffffffffffffffffffffffffff1681526020019081526020016000206000848152602001908152602001600020819055506001600083815260200190815260200160002060010160009054906101000a900473ffffffffffffffffffffffffffffffffffffffff1673ffffffffffffffffffffffffffffffffffffffff166323b872dd3330866040518463ffffffff1660e01b815260040161262693929190613342565b6020604051808303816000875af1158015612645573d6000803e3d6000fd5b505050506040513d601f19601f820116820180604052508101906126699190613059565b50505050565b612677612793565b73ffffffffffffffffffffffffffffffffffffffff16612695611306565b73ffffffffffffffffffffffffffffffffffffffff16146126eb576040517f08c379a00000000000000000000000000000000000000000000000000000000081526004016126e290613231565b60405180910390fd5b600073ffffffffffffffffffffffffffffffffffffffff168173ffffffffffffffffffffffffffffffffffffffff16141561275b576040517f08c379a0000000000000000000000000000000000000000000000000000000008152600401612752906133eb565b60405180910390fd5b6127648161279b565b50565b60008183612775919061310f565b905092915050565b6000818361278b91906132bd565b905092915050565b600033905090565b60008060009054906101000a900473ffffffffffffffffffffffffffffffffffffffff169050816000806101000a81548173ffffffffffffffffffffffffffffffffffffffff021916908373ffffffffffffffffffffffffffffffffffffffff1602179055508173ffffffffffffffffffffffffffffffffffffffff168173ffffffffffffffffffffffffffffffffffffffff167f8be0079c531659141344cd1fd0a4f28419497f9722a3daafe3b4186f6b6457e060405160405180910390a35050565b600080fd5b6000819050919050565b61287781612864565b811461288257600080fd5b50565b6000813590506128948161286e565b92915050565b6000819050919050565b6128ad8161289a565b81146128b857600080fd5b50565b6000813590506128ca816128a4565b92915050565b6000806000606084860312156128e9576128e861285f565b5b60006128f786828701612885565b9350506020612908868287016128bb565b9250506040612919868287016128bb565b9150509250925092565b61292c8161289a565b82525050565b600073ffffffffffffffffffffffffffffffffffffffff82169050919050565b600061295d82612932565b9050919050565b61296d81612952565b82525050565b7f4e487b7100000000000000000000000000000000000000000000000000000000600052602160045260246000fd5b600281106129b3576129b2612973565b5b50565b60008190506129c4826129a2565b919050565b60006129d4826129b6565b9050919050565b6129e4816129c9565b82525050565b6129f381612864565b82525050565b600060e082019050612a0e600083018a612923565b612a1b6020830189612964565b612a2860408301886129db565b612a3560608301876129ea565b612a426080830186612923565b612a4f60a0830185612923565b612a5c60c0830184612923565b98975050505050505050565b60008060408385031215612a7f57612a7e61285f565b5b6000612a8d858286016128bb565b9250506020612a9e85828601612885565b9150509250929050565b612ab181612952565b8114612abc57600080fd5b50565b600081359050612ace81612aa8565b92915050565b60008060408385031215612aeb57612aea61285f565b5b6000612af985828601612abf565b9250506020612b0a85828601612885565b9150509250929050565b6000602082019050612b296000830184612923565b92915050565b600060208284031215612b4557612b4461285f565b5b6000612b5384828501612885565b91505092915050565b6000604082019050612b7160008301856129ea565b612b7e6020830184612964565b9392505050565b60028110612b9257600080fd5b50565b600081359050612ba481612b85565b92915050565b60008060008060808587031215612bc457612bc361285f565b5b6000612bd287828801612b95565b9450506020612be387828801612885565b9350506040612bf4878288016128bb565b9250506060612c05878288016128bb565b91505092959194509250565b6000602082019050612c266000830184612964565b92915050565b60008060408385031215612c4357612c4261285f565b5b6000612c5185828601612885565b9250506020612c6285828601612abf565b9150509250929050565b600080600060608486031215612c8557612c8461285f565b5b6000612c9386828701612b95565b9350506020612ca486828701612885565b9250506040612cb5868287016128bb565b9150509250925092565b600060208284031215612cd557612cd461285f565b5b6000612ce3848285016128bb565b91505092915050565b6000602082019050612d0160008301846129ea565b92915050565b60008060408385031215612d1e57612d1d61285f565b5b6000612d2c85828601612885565b9250506020612d3d85828601612b95565b9150509250929050565b600081519050919050565b600082825260208201905092915050565b6000819050602082019050919050565b612d7c8161289a565b82525050565b612d8b81612952565b82525050565b612d9a816129c9565b82525050565b612da981612864565b82525050565b60e082016000820151612dc56000850182612d73565b506020820151612dd86020850182612d82565b506040820151612deb6040850182612d91565b506060820151612dfe6060850182612da0565b506080820151612e116080850182612d73565b5060a0820151612e2460a0850182612d73565b5060c0820151612e3760c0850182612d73565b50505050565b6000612e498383612daf565b60e08301905092915050565b6000602082019050919050565b6000612e6d82612d47565b612e778185612d52565b9350612e8283612d63565b8060005b83811015612eb3578151612e9a8882612e3d565b9750612ea583612e55565b925050600181019050612e86565b5085935050505092915050565b60006020820190508181036000830152612eda8184612e62565b905092915050565b600060208284031215612ef857612ef761285f565b5b6000612f0684828501612abf565b91505092915050565b600082825260208201905092915050565b7f446f6573206e6f74206578697374200000000000000000000000000000000000600082015250565b6000612f56600f83612f0f565b9150612f6182612f20565b602082019050919050565b60006020820190508181036000830152612f8581612f49565b9050919050565b7f62616c616e6365206e6f742073756666696369656e7400000000000000000000600082015250565b6000612fc2601683612f0f565b9150612fcd82612f8c565b602082019050919050565b60006020820190508181036000830152612ff181612fb5565b9050919050565b600060408201905061300d6000830185612964565b61301a6020830184612923565b9392505050565b60008115159050919050565b61303681613021565b811461304157600080fd5b50565b6000815190506130538161302d565b92915050565b60006020828403121561306f5761306e61285f565b5b600061307d84828501613044565b91505092915050565b7f4e487b7100000000000000000000000000000000000000000000000000000000600052601160045260246000fd5b60006130c08261289a565b91506130cb8361289a565b9250817fffffffffffffffffffffffffffffffffffffffffffffffffffffffffffffffff048311821515161561310457613103613086565b5b828202905092915050565b600061311a8261289a565b91506131258361289a565b92508282101561313857613137613086565b5b828203905092915050565b7f4e487b7100000000000000000000000000000000000000000000000000000000600052603260045260246000fd5b600061317d8261289a565b9150600082141561319157613190613086565b5b600182039050919050565b60006131a78261289a565b91507fffffffffffffffffffffffffffffffffffffffffffffffffffffffffffffffff8214156131da576131d9613086565b5b600182019050919050565b7f4f776e61626c653a2063616c6c6572206973206e6f7420746865206f776e6572600082015250565b600061321b602083612f0f565b9150613226826131e5565b602082019050919050565b6000602082019050818103600083015261324a8161320e565b9050919050565b7f496e7375666669656e742062616c616e63650000000000000000000000000000600082015250565b6000613287601283612f0f565b915061329282613251565b602082019050919050565b600060208201905081810360008301526132b68161327a565b9050919050565b60006132c88261289a565b91506132d38361289a565b9250827fffffffffffffffffffffffffffffffffffffffffffffffffffffffffffffffff0382111561330857613307613086565b5b828201905092915050565b7f4e487b7100000000000000000000000000000000000000000000000000000000600052603160045260246000fd5b60006060820190506133576000830186612964565b6133646020830185612964565b6133716040830184612923565b949350505050565b7f4f776e61626c653a206e6577206f776e657220697320746865207a65726f206160008201527f6464726573730000000000000000000000000000000000000000000000000000602082015250565b60006133d5602683612f0f565b91506133e082613379565b604082019050919050565b60006020820190508181036000830152613404816133c8565b905091905056fea26469706673582212207b135ae2cd86238e81b838bf13b4f326cdf90a82056d73d94fe184dfeed0169b64736f6c634300080c0033",
  "immutableReferences": {},
  "source": "pragma solidity >=0.8.0 < 0.9.0;\r\n//pragma experimental ABIencoderV2;\r\n\r\nimport \"./wallet.sol\";\r\n\r\n\r\ncontract Dex is Wallet { \r\n    enum Side {\r\n        BUY,\r\n        SELL\r\n    }\r\n    struct Order {\r\n        uint id;\r\n        address trader;\r\n        Side side;\r\n        bytes32 ticker;\r\n        uint amount;\r\n        uint price;\r\n        uint filled;\r\n    }\r\n\r\n    uint public nextOrderId = 0;\r\n    mapping(bytes32 => mapping(uint => Order[])) public orderBook;\r\n\r\n    function getOrderBook(bytes32 ticker, Side side) view public returns( Order[] memory){\r\n        return orderBook[ticker][uint(side)];\r\n\r\n    }\r\n    function createLimitOrder( Side side, bytes32 ticker, uint amount, uint price) public{\r\n        if(side == Side.BUY){\r\n            require(balances[msg.sender][\"ETH\"] >= amount * price);\r\n\r\n        }\r\n        else if (side == Side.SELL){\r\n            require(balances[msg.sender][ticker] >= amount);\r\n        }\r\n\r\n        Order[] storage orders = orderBook[ticker][uint(side)];\r\n        orders.push(\r\n            Order(nextOrderId, msg.sender, side, ticker, amount, price, 0)\r\n        );\r\n\r\n        //Bubble sort\r\n        uint i = orders.length > 0 ? orders.length -1 : 0 ;\r\n        if(side == Side.BUY){\r\n            while(i > 0){\r\n                if(orders[i-1].price > orders[i].price) {\r\n                    break;\r\n                }\r\n                Order memory orderToMove = orders[i-1] ;\r\n                orders[i-1] = orders[i];\r\n                orders[i] = orderToMove;\r\n                i--;\r\n            }\r\n\r\n        }\r\n        else if(side == Side.SELL){\r\n            while(i > 0){\r\n                if (orders[i-1].price < orders[i].price) {\r\n                    break;\r\n                }\r\n                Order memory orderToMove = orders[i-1];\r\n                orders[i-1] = orders[i];\r\n                orders[i]= orderToMove;\r\n                i--;\r\n            }\r\n        }\r\n        nextOrderId++;\r\n    }\r\n\r\n    function createMarketOrder(Side side, bytes32 ticker, uint amount) public{\r\n        if(side == Side.SELL){\r\n            require(balances[msg.sender][ticker] >= amount, \"Insuffient balance\");\r\n        }\r\n\r\n        uint orderBookSide;\r\n        if(side == Side.BUY){\r\n            orderBookSide = 1;\r\n        }\r\n        else{\r\n            orderBookSide = 0;\r\n        }\r\n        Order[] storage orders = orderBook[ticker][orderBookSide];\r\n\r\n        uint totalFilled = 0;\r\n\r\n        for( uint256 i= 0; i< orders.length && totalFilled < amount; i++ ) {\r\n            uint leftToFill = amount - totalFilled;\r\n            uint avaibleToFill = orders[i].amount - orders[i].filled; \r\n            uint filled = 0;\r\n            if( avaibleToFill > leftToFill) {\r\n                filled = leftToFill; \r\n            }\r\n            else {\r\n                filled = avaibleToFill;\r\n            }\r\n\r\n            totalFilled = totalFilled + filled;\r\n            orders[i].filled = orders[i].filled + filled;\r\n            uint cost = filled * orders[i].price;\r\n\r\n            if(side == Side.BUY){\r\n                //Verify that the buyer has enough ETH to cover the rchase (require)\r\n                require(balances[msg.sender][\"ETH\"] >= filled * orders[i].price);\r\n                 //msg.sender is the buyer\r\n                balances[msg.sender][ticker] = balances[msg.sender][ticker] + filled;\r\n                balances[msg.sender][\"ETH\"] = balances[msg.sender][\"ETH\"] - cost;\r\n\r\n                balances[orders[i].trader][ticker] = balances[orders[i].trader][ticker] - filled;\r\n                balances[orders[i].trader][\"ETH\"] = balances[orders[i].trader][\"ETH\"] + cost;\r\n               \r\n                //transfer eth from buyer to seller\r\n                //Transfer Tokens from Seller to Buyer\r\n            }\r\n            else if (side == Side.SELL){ //Execute the tade and shift balances between buyer and seller\r\n                //msg.sender is the seller\r\n                balances[msg.sender][ticker] = balances[msg.sender][ticker] - filled;\r\n                balances[msg.sender][\"ETH\"] = balances[msg.sender][\"ETH\"] + cost;\r\n\r\n                balances[orders[i].trader][ticker] = balances[orders[i].trader][ticker] + filled;\r\n                balances[orders[i].trader][\"ETH\"] = balances[orders[i].trader][\"ETH\"] - cost;\r\n                //transfer eth from buyer to seller\r\n                //Transfer Tokens from Seller to Buyer     \r\n            }\r\n        \r\n        }\r\n        // loop trough the orderbook and remove 100% filled orders\r\n        while ( orders[0].filled == orders[0].amount && orders.length > 0){\r\n            for (uint256 i = 0; i < orders.length - 1; i ++ ){\r\n                orders[i]= orders[i + 1];\r\n            }\r\n            orders.pop();\r\n\r\n        }\r\n                \r\n\r\n    }\r\n\r\n\r\n}",
  "sourcePath": "C:\\Users\\Boone\\Documents\\ethereum-201\\dex\\contracts\\dex.sol",
  "compiler": {
    "name": "solc",
    "version": "0.8.12+commit.f00d7308.Emscripten.clang"
  },
  "schemaVersion": "3.4.3",
  "updatedAt": "2022-02-22T18:45:54.432Z",
  "devdoc": {
    "kind": "dev",
    "methods": {
      "owner()": {
        "details": "Returns the address of the current owner."
      },
      "renounceOwnership()": {
        "details": "Leaves the contract without owner. It will not be possible to call `onlyOwner` functions anymore. Can only be called by the current owner. NOTE: Renouncing ownership will leave the contract without an owner, thereby removing any functionality that is only available to the owner."
      },
      "transferOwnership(address)": {
        "details": "Transfers ownership of the contract to a new account (`newOwner`). Can only be called by the current owner."
      }
    },
    "version": 1
  },
  "userdoc": {
    "kind": "user",
    "methods": {},
    "version": 1
  }
}