{
  "contractName": "Wallet",
  "abi": [
    {
      "anonymous": false,
      "inputs": [
        {
          "indexed": true,
          "internalType": "address",
          "name": "previousOwner",
          "type": "address"
        },
        {
          "indexed": true,
          "internalType": "address",
          "name": "newOwner",
          "type": "address"
        }
      ],
      "name": "OwnershipTransferred",
      "type": "event"
    },
    {
      "inputs": [
        {
          "internalType": "address",
          "name": "",
          "type": "address"
        },
        {
          "internalType": "bytes32",
          "name": "",
          "type": "bytes32"
        }
      ],
      "name": "balances",
      "outputs": [
        {
          "internalType": "uint256",
          "name": "",
          "type": "uint256"
        }
      ],
      "stateMutability": "view",
      "type": "function"
    },
    {
      "inputs": [],
      "name": "owner",
      "outputs": [
        {
          "internalType": "address",
          "name": "",
          "type": "address"
        }
      ],
      "stateMutability": "view",
      "type": "function"
    },
    {
      "inputs": [],
      "name": "renounceOwnership",
      "outputs": [],
      "stateMutability": "nonpayable",
      "type": "function"
    },
    {
      "inputs": [
        {
          "internalType": "uint256",
          "name": "",
          "type": "uint256"
        }
      ],
      "name": "tokenList",
      "outputs": [
        {
          "internalType": "bytes32",
          "name": "",
          "type": "bytes32"
        }
      ],
      "stateMutability": "view",
      "type": "function"
    },
    {
      "inputs": [
        {
          "internalType": "bytes32",
          "name": "",
          "type": "bytes32"
        }
      ],
      "name": "tokenMapping",
      "outputs": [
        {
          "internalType": "bytes32",
          "name": "ticker",
          "type": "bytes32"
        },
        {
          "internalType": "address",
          "name": "tokenAddress",
          "type": "address"
        }
      ],
      "stateMutability": "view",
      "type": "function"
    },
    {
      "inputs": [
        {
          "internalType": "address",
          "name": "newOwner",
          "type": "address"
        }
      ],
      "name": "transferOwnership",
      "outputs": [],
      "stateMutability": "nonpayable",
      "type": "function"
    },
    {
      "inputs": [
        {
          "internalType": "bytes32",
          "name": "ticker",
          "type": "bytes32"
        },
        {
          "internalType": "address",
          "name": "tokenAddress",
          "type": "address"
        }
      ],
      "name": "addToken",
      "outputs": [],
      "stateMutability": "nonpayable",
      "type": "function"
    },
    {
      "inputs": [
        {
          "internalType": "uint256",
          "name": "amount",
          "type": "uint256"
        },
        {
          "internalType": "bytes32",
          "name": "ticker",
          "type": "bytes32"
        }
      ],
      "name": "deposit",
      "outputs": [],
      "stateMutability": "nonpayable",
      "type": "function"
    },
    {
      "inputs": [],
      "name": "depositEth",
      "outputs": [],
      "stateMutability": "payable",
      "type": "function"
    },
    {
      "inputs": [
        {
          "internalType": "uint256",
          "name": "amount",
          "type": "uint256"
        },
        {
          "internalType": "bytes32",
          "name": "ticker",
          "type": "bytes32"
        }
      ],
      "name": "withrawal",
      "outputs": [],
      "stateMutability": "nonpayable",
      "type": "function"
    }
  ],
  "bytecode": "0x608060405234801561001057600080fd5b5061002d61002261003260201b60201c565b61003a60201b60201c565b6100fe565b600033905090565b60008060009054906101000a900473ffffffffffffffffffffffffffffffffffffffff169050816000806101000a81548173ffffffffffffffffffffffffffffffffffffffff021916908373ffffffffffffffffffffffffffffffffffffffff1602179055508173ffffffffffffffffffffffffffffffffffffffff168173ffffffffffffffffffffffffffffffffffffffff167f8be0079c531659141344cd1fd0a4f28419497f9722a3daafe3b4186f6b6457e060405160405180910390a35050565b6112bd8061010d6000396000f3fe6080604052600436106100915760003560e01c80638da5cb5b116100595780638da5cb5b1461015b5780639776aacf146101865780639ead7222146101af578063c9630cb0146101ec578063f2fde38b1461021557610091565b8063168f5a01146100965780631f14df69146100bf578063439370b1146100fc578063667cb4ba14610106578063715018a614610144575b600080fd5b3480156100a257600080fd5b506100bd60048036038101906100b89190610cd6565b61023e565b005b3480156100cb57600080fd5b506100e660048036038101906100e19190610d74565b6104e9565b6040516100f39190610dc3565b60405180910390f35b61010461050e565b005b34801561011257600080fd5b5061012d60048036038101906101289190610dde565b610607565b60405161013b929190610e29565b60405180910390f35b34801561015057600080fd5b5061015961064b565b005b34801561016757600080fd5b506101706106d3565b60405161017d9190610e52565b60405180910390f35b34801561019257600080fd5b506101ad60048036038101906101a89190610e6d565b6106fc565b005b3480156101bb57600080fd5b506101d660048036038101906101d19190610ead565b610837565b6040516101e39190610eda565b60405180910390f35b3480156101f857600080fd5b50610213600480360381019061020e9190610cd6565b61085b565b005b34801561022157600080fd5b5061023c60048036038101906102379190610ef5565b610a75565b005b80600073ffffffffffffffffffffffffffffffffffffffff166001600083815260200190815260200160002060010160009054906101000a900473ffffffffffffffffffffffffffffffffffffffff1673ffffffffffffffffffffffffffffffffffffffff1614156102e5576040517f08c379a00000000000000000000000000000000000000000000000000000000081526004016102dc90610f7f565b60405180910390fd5b82600360003373ffffffffffffffffffffffffffffffffffffffff1673ffffffffffffffffffffffffffffffffffffffff1681526020019081526020016000206000848152602001908152602001600020541015610378576040517f08c379a000000000000000000000000000000000000000000000000000000000815260040161036f90610feb565b60405180910390fd5b6103db83600360003373ffffffffffffffffffffffffffffffffffffffff1673ffffffffffffffffffffffffffffffffffffffff168152602001908152602001600020600085815260200190815260200160002054610b6d90919063ffffffff16565b600360003373ffffffffffffffffffffffffffffffffffffffff1673ffffffffffffffffffffffffffffffffffffffff1681526020019081526020016000206000848152602001908152602001600020819055506001600083815260200190815260200160002060010160009054906101000a900473ffffffffffffffffffffffffffffffffffffffff1673ffffffffffffffffffffffffffffffffffffffff1663a9059cbb33856040518363ffffffff1660e01b81526004016104a092919061100b565b6020604051808303816000875af11580156104bf573d6000803e3d6000fd5b505050506040513d601f19601f820116820180604052508101906104e3919061106c565b50505050565b6003602052816000526040600020602052806000526040600020600091509150505481565b61059134600360003373ffffffffffffffffffffffffffffffffffffffff1673ffffffffffffffffffffffffffffffffffffffff16815260200190815260200160002060007f4554480000000000000000000000000000000000000000000000000000000000815260200190815260200160002054610b8390919063ffffffff16565b600360003373ffffffffffffffffffffffffffffffffffffffff1673ffffffffffffffffffffffffffffffffffffffff16815260200190815260200160002060007f4554480000000000000000000000000000000000000000000000000000000000815260200190815260200160002081905550565b60016020528060005260406000206000915090508060000154908060010160009054906101000a900473ffffffffffffffffffffffffffffffffffffffff16905082565b610653610b99565b73ffffffffffffffffffffffffffffffffffffffff166106716106d3565b73ffffffffffffffffffffffffffffffffffffffff16146106c7576040517f08c379a00000000000000000000000000000000000000000000000000000000081526004016106be906110e5565b60405180910390fd5b6106d16000610ba1565b565b60008060009054906101000a900473ffffffffffffffffffffffffffffffffffffffff16905090565b610704610b99565b73ffffffffffffffffffffffffffffffffffffffff166107226106d3565b73ffffffffffffffffffffffffffffffffffffffff1614610778576040517f08c379a000000000000000000000000000000000000000000000000000000000815260040161076f906110e5565b60405180910390fd5b60405180604001604052808381526020018273ffffffffffffffffffffffffffffffffffffffff16815250600160008481526020019081526020016000206000820151816000015560208201518160010160006101000a81548173ffffffffffffffffffffffffffffffffffffffff021916908373ffffffffffffffffffffffffffffffffffffffff16021790555090505060028290806001815401808255809150506001900390600052602060002001600090919091909150555050565b6002818154811061084757600080fd5b906000526020600020016000915090505481565b80600073ffffffffffffffffffffffffffffffffffffffff166001600083815260200190815260200160002060010160009054906101000a900473ffffffffffffffffffffffffffffffffffffffff1673ffffffffffffffffffffffffffffffffffffffff161415610902576040517f08c379a00000000000000000000000000000000000000000000000000000000081526004016108f990610f7f565b60405180910390fd5b61096583600360003373ffffffffffffffffffffffffffffffffffffffff1673ffffffffffffffffffffffffffffffffffffffff168152602001908152602001600020600085815260200190815260200160002054610b8390919063ffffffff16565b600360003373ffffffffffffffffffffffffffffffffffffffff1673ffffffffffffffffffffffffffffffffffffffff1681526020019081526020016000206000848152602001908152602001600020819055506001600083815260200190815260200160002060010160009054906101000a900473ffffffffffffffffffffffffffffffffffffffff1673ffffffffffffffffffffffffffffffffffffffff166323b872dd3330866040518463ffffffff1660e01b8152600401610a2c93929190611105565b6020604051808303816000875af1158015610a4b573d6000803e3d6000fd5b505050506040513d601f19601f82011682018060405250810190610a6f919061106c565b50505050565b610a7d610b99565b73ffffffffffffffffffffffffffffffffffffffff16610a9b6106d3565b73ffffffffffffffffffffffffffffffffffffffff1614610af1576040517f08c379a0000000000000000000000000000000000000000000000000000000008152600401610ae8906110e5565b60405180910390fd5b600073ffffffffffffffffffffffffffffffffffffffff168173ffffffffffffffffffffffffffffffffffffffff161415610b61576040517f08c379a0000000000000000000000000000000000000000000000000000000008152600401610b58906111ae565b60405180910390fd5b610b6a81610ba1565b50565b60008183610b7b91906111fd565b905092915050565b60008183610b919190611231565b905092915050565b600033905090565b60008060009054906101000a900473ffffffffffffffffffffffffffffffffffffffff169050816000806101000a81548173ffffffffffffffffffffffffffffffffffffffff021916908373ffffffffffffffffffffffffffffffffffffffff1602179055508173ffffffffffffffffffffffffffffffffffffffff168173ffffffffffffffffffffffffffffffffffffffff167f8be0079c531659141344cd1fd0a4f28419497f9722a3daafe3b4186f6b6457e060405160405180910390a35050565b600080fd5b6000819050919050565b610c7d81610c6a565b8114610c8857600080fd5b50565b600081359050610c9a81610c74565b92915050565b6000819050919050565b610cb381610ca0565b8114610cbe57600080fd5b50565b600081359050610cd081610caa565b92915050565b60008060408385031215610ced57610cec610c65565b5b6000610cfb85828601610c8b565b9250506020610d0c85828601610cc1565b9150509250929050565b600073ffffffffffffffffffffffffffffffffffffffff82169050919050565b6000610d4182610d16565b9050919050565b610d5181610d36565b8114610d5c57600080fd5b50565b600081359050610d6e81610d48565b92915050565b60008060408385031215610d8b57610d8a610c65565b5b6000610d9985828601610d5f565b9250506020610daa85828601610cc1565b9150509250929050565b610dbd81610c6a565b82525050565b6000602082019050610dd86000830184610db4565b92915050565b600060208284031215610df457610df3610c65565b5b6000610e0284828501610cc1565b91505092915050565b610e1481610ca0565b82525050565b610e2381610d36565b82525050565b6000604082019050610e3e6000830185610e0b565b610e4b6020830184610e1a565b9392505050565b6000602082019050610e676000830184610e1a565b92915050565b60008060408385031215610e8457610e83610c65565b5b6000610e9285828601610cc1565b9250506020610ea385828601610d5f565b9150509250929050565b600060208284031215610ec357610ec2610c65565b5b6000610ed184828501610c8b565b91505092915050565b6000602082019050610eef6000830184610e0b565b92915050565b600060208284031215610f0b57610f0a610c65565b5b6000610f1984828501610d5f565b91505092915050565b600082825260208201905092915050565b7f446f6573206e6f74206578697374200000000000000000000000000000000000600082015250565b6000610f69600f83610f22565b9150610f7482610f33565b602082019050919050565b60006020820190508181036000830152610f9881610f5c565b9050919050565b7f62616c616e6365206e6f742073756666696369656e7400000000000000000000600082015250565b6000610fd5601683610f22565b9150610fe082610f9f565b602082019050919050565b6000602082019050818103600083015261100481610fc8565b9050919050565b60006040820190506110206000830185610e1a565b61102d6020830184610db4565b9392505050565b60008115159050919050565b61104981611034565b811461105457600080fd5b50565b60008151905061106681611040565b92915050565b60006020828403121561108257611081610c65565b5b600061109084828501611057565b91505092915050565b7f4f776e61626c653a2063616c6c6572206973206e6f7420746865206f776e6572600082015250565b60006110cf602083610f22565b91506110da82611099565b602082019050919050565b600060208201905081810360008301526110fe816110c2565b9050919050565b600060608201905061111a6000830186610e1a565b6111276020830185610e1a565b6111346040830184610db4565b949350505050565b7f4f776e61626c653a206e6577206f776e657220697320746865207a65726f206160008201527f6464726573730000000000000000000000000000000000000000000000000000602082015250565b6000611198602683610f22565b91506111a38261113c565b604082019050919050565b600060208201905081810360008301526111c78161118b565b9050919050565b7f4e487b7100000000000000000000000000000000000000000000000000000000600052601160045260246000fd5b600061120882610c6a565b915061121383610c6a565b925082821015611226576112256111ce565b5b828203905092915050565b600061123c82610c6a565b915061124783610c6a565b9250827fffffffffffffffffffffffffffffffffffffffffffffffffffffffffffffffff0382111561127c5761127b6111ce565b5b82820190509291505056fea264697066735822122010034625fbd55d3f3aeb65cdd1cae7288c2329f3a92c921e6bb1f27c868cdbc364736f6c634300080c0033",
  "immutableReferences": {},
  "source": "pragma solidity >=0.8.0 < 0.9.0;\r\n\r\n\r\nimport \"../node_modules/@openzeppelin/contracts/token/ERC20/IERC20.sol\";\r\nimport \"../node_modules/@openzeppelin/contracts/utils/math/safeMath.sol\";\r\nimport \"../node_modules/@openzeppelin/contracts/access/Ownable.sol\";\r\n\r\ncontract Wallet is Ownable {\r\n    using SafeMath for uint256;\r\n\r\n    struct Token{\r\n        bytes32 ticker;\r\n        address tokenAddress;\r\n    }\r\n    mapping(bytes32 => Token ) public tokenMapping;\r\n    bytes32[] public tokenList;\r\n\r\n    mapping( address => mapping(bytes32 => uint256)) public balances;\r\n\r\n    modifier tokenExist(bytes32 ticker) {\r\n        require(tokenMapping[ticker].tokenAddress != address(0), \"Does not exist \" );\r\n        _;\r\n    }\r\n\r\n    function addToken(bytes32 ticker, address tokenAddress)  external onlyOwner {\r\n        tokenMapping[ticker] = Token(ticker, tokenAddress);\r\n        tokenList.push(ticker);\r\n    }\r\n\r\n    function deposit( uint amount, bytes32 ticker)external tokenExist(ticker) {\r\n        balances[msg.sender][ticker] = balances[msg.sender][ticker].add(amount);\r\n        IERC20(tokenMapping[ticker].tokenAddress).transferFrom(msg.sender, address(this), amount);\r\n    }\r\n\r\n    function depositEth() payable external{\r\n        balances[msg.sender][bytes32(\"ETH\")] = balances[msg.sender][bytes32(\"ETH\")].add(msg.value);\r\n    }\r\n\r\n    function withrawal( uint amount, bytes32 ticker)external tokenExist(ticker) {\r\n        require(balances[msg.sender][ticker] >= amount, \"balance not sufficient\");\r\n        balances[msg.sender][ticker] = balances[msg.sender][ticker].sub(amount);\r\n        IERC20(tokenMapping[ticker].tokenAddress).transfer(msg.sender, amount);\r\n\r\n    }\r\n\r\n}",
  "sourcePath": "C:\\Users\\Boone\\Documents\\ethereum-201\\dex\\contracts\\wallet.sol",
  "compiler": {
    "name": "solc",
    "version": "0.8.12+commit.f00d7308.Emscripten.clang"
  },
  "schemaVersion": "3.4.3",
  "updatedAt": "2022-02-22T18:45:54.469Z",
  "devdoc": {
    "kind": "dev",
    "methods": {
      "owner()": {
        "details": "Returns the address of the current owner."
      },
      "renounceOwnership()": {
        "details": "Leaves the contract without owner. It will not be possible to call `onlyOwner` functions anymore. Can only be called by the current owner. NOTE: Renouncing ownership will leave the contract without an owner, thereby removing any functionality that is only available to the owner."
      },
      "transferOwnership(address)": {
        "details": "Transfers ownership of the contract to a new account (`newOwner`). Can only be called by the current owner."
      }
    },
    "version": 1
  },
  "userdoc": {
    "kind": "user",
    "methods": {},
    "version": 1
  }
}